:100000004006002063010000610100006101000062
:1000100000000000000000000000000000000000E0
:10002000000000000000000000000000610100006E
:1000300000000000000000006101000061010000FC
:100040006101000061010000610100006101000028
:100050006101000061010000610100006101000018
:100060006101000061010000610100006101000008
:1000700061010000610100006101000061010000F8
:1000800061010000610100006101000061010000E8
:1000900061010000610100006101000061010000D8
:1000A00061010000610100006101000061010000C8
:1000B0006101000061010000E7010000F70100009C
:1000C0003B0200007D0200002303000061010000EC
:1000D0003B030000610100006101000061010000BC
:1000E0006101000061010000610100006101000088
:1000F0006101000010B540F20004C2F20004237850
:1001000063B940F20003C0F200032BB140F2C830E3
:10011000C0F2000000E000BF0123237010BDC04604
:1001200040F20003C0F2000310B54BB140F20401ED
:1001300040F2C830C2F20001C0F2000000E000BF8F
:1001400040F2C830C0F20000036803B910BD40F2AD
:100150000003C0F20003002BF8D09847F6E7C04632
:10016000FEE710B540F2C832C0F2000240F20003D0
:10017000C2F200039A4212D040F20003C2F200031E
:1001800040F2C832C0F2000203E011681960043383
:10019000043240F20001C2F200018B42F5D340F27A
:1001A0000003C2F2000302E000221A60043340F2AE
:1001B0003C02C2F200029342F6D340F20003C0F2C6
:1001C00000037F2293434EF60052CEF2000293606A
:1001D00040F25933C0F20003984740F25333C0F263
:1001E00000039847FEE710B540F22803C2F200036F
:1001F0001B68984710BD10B540F60043C4F20023B9
:1002000002221A764EF20013CEF200038021090674
:100210007E329950BFF34F8FBFF36F8F642040F24F
:10022000D123C0F200039847C023DB0540F200420F
:100230005A6140F600025A6110BD10B540F6004305
:10024000C4F200231B7E5BB2002B06DB40F23003BE
:10025000C2F200031B68984710BD40F60043C4F289
:1002600000231A8D80221A765B8BDB07F4D540F6CB
:100270000043C4F200237F3A5A83EDE740F6004280
:10028000C4F20022917D137E0B401A0705D540F67B
:100290000042C4F2002208211176DA0605D540F6A4
:1002A0000042C4F20022102111769A0605D540F6CC
:1002B0000042C4F20022202111765BB2002B00DB49
:1002C000704740F60043C4F2002380221A76F7E715
:1002D00010B540F21C03C2F200031C6840F2F72381
:1002E000C0F2000398470100200040F20733C0F23B
:1002F0000003984710BD8300181843011D331E20CA
:10030000B3FBF0F070470139FDD8704710B5C368F2
:100310009A7AD20700D410BD01229A7203689847D6
:10032000F9E710B540F22003C2F20003186840F26A
:100330000D33C0F20003984710BD10B540F2200302
:10034000C2F20003586840F20D33C0F20003984730
:1003500010BD00207047000070B500250E4B0F4CFB
:10036000E41AA410A54209D1002500F01DF80C4C98
:100370000C4BE41AA410A54207D170BD064AAB008D
:100380009B181B6898470135ECE7064AAB009B18A1
:100390001B6898470135EEE7B4030000B403000082
:1003A000B8030000B4030000F8B5C046F8BC08BCB0
:1003B0009E46704721010000F8B5C046F8BC08BC55
:0803C0009E467047F5000000A5
:00000001FF
