S01A000053414D4C3130453136415F70726F6A6563742E7372656339
S1130000E80A0020710100006F0100006F01000088
S113001000000000000000000000000000000000DC
S11300200000000000000000000000006F0100005C
S113003000000000000000006F0100006F010000DC
S11300406F0100006F0100006F0100006F010000EC
S11300506F0100006F0100006F0100006F010000DC
S11300606F0100006F0100006F0100006F010000CC
S11300706F0100006F0100006F0100006F010000BC
S11300806F0100006F0100006F0100006F010000AC
S11300906F0100006F0100006F0100006F0100009C
S11300A06F0100006F0100006F0100006F0100008C
S11300B06F0100006F0100007D1300008D1300002C
S11300C0D113000013140000652E00006F0100001E
S11300D07D2E00006F0100006F0100006F01000021
S11300E06F0100006F0100006F0100006F0100004C
S11300F06F01000010B540F2B804C2F20004237886
S113010063B940F20003C0F200032BB147F2EC20C4
S1130110C0F2000000E000BF0123237010BDC04600
S113012040F20003C0F2000310B54BB140F2BC0131
S113013047F2EC20C2F20001C0F2000000E000BF70
S113014047F21430C0F20000036803B910BD40F256
S11301500003C0F20003002BF8D09847F6E7C0462E
S113016010B540F22543C0F20003984710BDFEE7E6
S113017010B547F21432C0F2000240F20003C2F29A
S113018000039A4212D040F20003C2F2000347F285
S11301901432C0F2000203E011681960043304321F
S11301A040F2B401C2F200018B42F5D340F2B8032D
S11301B0C2F2000302E000221A60043340F2E44277
S11301C0C2F200029342F6D340F20003C0F20003ED
S11301D07F2293434EF60052CEF20002936046F61D
S11301E0F153C0F20003984743F2F123C0F2000335
S11301F09847FEE710B540F60003C4F20003DA693D
S113020010210A43DA6141F60043C4F2000330319D
S1130210B822995042F61963C0F2000398470200CD
S113022041F20001C4F2002140F26420C2F2000055
S113023041F6F563C0F20003984710BD10B540F6CF
S11302400003C4F20003DA6940210A43DA6141F68B
S11302500043C4F20003BC22995042F61963C0F271
S113026000039847020041F60001C4F2002140F265
S11302700C20C2F2000041F6F563C0F20003984777
S113028010BD40F60003C4F200031A6980210A433A
S11302901A619A697C390A439A617047F0B5C0249F
S11302A0E40580256D02656043F20003C4F2000397
S11302B05020195C04221143C9B21954A561195C78
S11302C00126B14301252943C9B219541838195CD0
S11302D00F27B94302273943C9B21954802189022F
S11302E08C46616051215F5C3A43D2B25A546246F3
S11302F0A2615A5CB2432A43D2B25A541A5C4239BC
S11303000A4020210A43D2B21A54F0BD41F60043F8
S1130310C4F200034021B02299500131083A9950A7
S113032040F60003C4F20003DA693D390A43DA6196
S1130330704710B540F20D33C0F20003984740F601
S11303400001C4F2002140F24420C2F2000041F650
S11303505953C0F20003984740F29D23C0F20003B2
S1130360984710BD41F60043C4F200034021B42273
S1130370995001310C3A995040F60003C4F200033D
S1130380DA6939390A43DA61704730B543F2000358
S1130390C4F200034822995C0125A94301242143A6
S11303A0C9B299543420195C393A91430322114358
S11303B0C9B2195449215A5CAA432243D2B25A54AD
S11303C01A5C3A390A4030210A43D2B21A5430BD79
S11303D040F60003C4F200035A6940F200110A43D4
S11303E05A61704710B540F2D133C0F20003984708
S11303F046F65461C0F200014822012042F289030A
S1130400C0F20003984740F22820C2F2000042F2F2
S11304100003C4F20003036042F6D173C0F2000388
S1130420984710BD70B542F23713C0F200039847E5
S1130430C022D20580242405546043F20003C4F290
S113044000030021C4F20201996240F60001CCF2DB
S11304500201996254605B20195C04252943C9B2E6
S1130460195494611C5C01218C431C542530906107
S11304709060C4F200009862C0200006986247258C
S11304805C5D8C435C5540F6000454619460C4F296
S113049000049C62986204355C5D8C435C5540F2B8
S11304A000445461946040F20042C4F200029A6233
S11304B098624A201A5C8A431A5440F28323C0F299
S11304C00003984742F2E313C0F20003984740F256
S11304D0F513C0F20003984740F23D23C0F2000335
S11304E0984740F23333C0F20003984740F2653333
S11304F0C0F20003984742F69563C0F200039847A0
S113050040F28B33C0F20003984740F2E533C0F267
S11305100003984770BD10B592B001A841F6894315
S1130520C0F2000398478024E403402202A920007B
S113053042F2F123C0F200039847200042F255230F
S1130540C0F20003984744F20003C4F200131B8B6B
S11305505B07F8D540F2C021C2F200018024E40315
S11305604022200042F2BD23C0F2000398474022FB
S113057002A9200042F2F123C0F20003984701A827
S113058041F69743C0F20003984712B010BD00B57E
S113059083B001A841F68943C0F20003984740F2B2
S11305A0C021C2F2000140228020C00342F2F123A4
S11305B0C0F20003984701A841F69743C0F2000334
S11305C0984703B000BD10B592B001A841F6894325
S11305D0C0F20003984740F20014C0F240044022E5
S11305E002A9200042F2F123C0F200039847200040
S11305F042F25523C0F20003984744F20003C4F2C8
S113060000131B8B5B07F8D540F28021C2F2000176
S113061040F20014C0F240044022200042F2BD2304
S1130620C0F200039847402202A9200042F2F123BD
S1130630C0F20003984701A841F69743C0F20003B3
S1130640984712B010BD00B583B001A841F68943A4
S1130650C0F20003984740F28021C2F2000140F248
S11306600010C0F24000402242F2F123C0F2000325
S1130670984701A841F69743C0F20003984703B096
S113068000BD0300303BDBB2092B05D90300413B1D
S1130690DBB2052B02D9FF23180070473738C3B2E9
S11306A0FAE7092806D903000A3BDBB2052B04D973
S11306B0302070473030C0B2FBE73730C0B2F8E7C3
S11306C0002304E001785B18DBB2110001304A1EFC
S11306D092B20029F6D15842C0B2704770B584B0C6
S11306E00C0015001E0003A841F68943C0F2000364
S11306F0984740F2D403C2F200030A221A7001237D
S113070000933300033A2900200041F23D54C0F223
S11307100004A047012809D0032403A841F6974305
S1130720C0F200039847200004B070BD44F6206076
S113073041F60B03C0F200039847012801D00324BB
S1130740EBE70024E9E700B583B001A841F689434B
S1130750C0F2000398470021012041F28943C0F20E
S11307600003984740F2D403C2F2000300225A70F7
S113077001A841F69743C0F200039847002041F2D4
S11307804933C0F20003984703B000BD00B583B0FD
S113079001A841F68943C0F20003984700210020D4
S11307A041F28943C0F20003984741F66903C0F25D
S11307B00003984701A841F69743C0F20003984705
S11307C003B000BD70B582B006000C00150001A88E
S11307D041F68943C0F20003984740F2D403C2F2C1
S11307E000035B889BB2022B09D8052401A841F6BB
S11307F09743C0F200039847200002B070BD40F256
S1130800D403C2F20003598889B240F22830C2F2FC
S1130810000040F2C163C0F20003984708B1052408
S1130820E4E740F22833C2F200031A78327040F24F
S1130830D402C2F200025288023A2A8001332360B1
S11308400024D3E7F0B583B006000C00150001A81E
S113085041F68943C0F20003984740F2D403C2F240
S113086000035B784BB1052401A841F69743C0F21D
S113087000039847200003B0F0BD601E40F2D40787
S1130880C2F20007786001333B8106703B895D1931
S1130890ADB23D81398989B240F2C163C0F200032F
S11308A098473B899BB25A1C92B23A8140F2283253
S11308B0C2F200029446634418700123BB72012102
S11308C0002041F28943C0F2000398470024CBE79B
S11308D000B583B06B46D81D41F27743C0F20003E4
S11308E0984740F2D403C2F200035B78DBB2012BD9
S11308F008D0002B00D1A5E0022B00D16CE0002031
S113090003B000BD41F64903C0F2000398476B46AB
S1130910D8793A2811D00D2818D040F28363C0F258
S11309200003984740F2D403C2F20003DB7ADBB23F
S1130930A3B1012B39D00020E2E740F2D403C2F284
S113094000030022DA725A800020D9E740F2D4036F
S1130950C2F2000302225A700020D1E740F2D4030D
S1130960C2F200035B889BB2FF2B11D840F2D40380
S1130970C2F200035A8840F22831C2F200018C46C8
S113098062440001C0B210700122DA720020B7E79D
S113099040F2D403C2F2000300225A7041F6690304
S11309A0C0F2000398470020AAE740F2D403C2F241
S11309B00003598840F22832C2F20002944661448E
S11309C00A781043C0B208705A88013292B25A8031
S11309D00022DA72002093E76B46DA7940F2D403FE
S11309E0C2F200031B78DBB29A4209D03A2A19D02A
S11309F040F2D403C2F2000300225A7000207FE7C1
S1130A0041F66903C0F20003984740F2D403C2F2EE
S1130A10000300225A70012041F24933C0F200035E
S1130A2098476DE740F2D403C2F200030022DA7261
S1130A305A8001325A7041F64903C0F200039847C4
S1130A4000205DE76B4607331B783A2B01D000206A
S1130A5056E741F64903C0F20003984740F2D40335
S1130A60C2F2000300225A80DA7201225A70002076
S1130A7046E7000070B540F2D403C2F200039B7A4B
S1130A80DBB2042B00D994E09B004B4AD3589F4619
S1130A903A2041F26743C0F20003984740F2D4037E
S1130AA0C2F2000302229A720022DA7200242000A9
S1130AB070BD40F2D403C2F200031B899BB2E3B3BE
S1130AC040F2D403C2F20003DB7ADBB21BB1012B88
S1130AD016D00024EBE740F2D404C2F200046368A9
S1130AE01878000940F2A363C0F20003984741F26A
S1130AF06743C0F2000398470123E3720024D6E75A
S1130B0040F2D404C2F20004636818780F2318403A
S1130B1040F2A363C0F20003984741F26743C0F276
S1130B20000398476368013363600023E3722389F9
S1130B30013B9BB223810024B9E70D2041F26743B6
S1130B40C0F20003984740F2D403C2F20003032228
S1130B509A720024ABE740F2D404C2F20004207875
S1130B60C0B241F26743C0F2000398470423A37262
S1130B7000249CE740F2D405C2F200050026AE72C0
S1130B80032041F24933C0F20003984704000021D6
S1130B90012041F28943C0F200039847AE7286E710
S1130BA00021012041F28943C0F200039847002448
S1130BB07DE700247BE7C046706E000010B540F26C
S1130BC0D403C2F200035B78013BDBB2012B05D8EE
S1130BD040F2D403C2F2000300225A7041F66903C2
S1130BE0C0F200039847002010BD70B50C000B88BC
S1130BF0052B01D0032070BD417809028378194385
S1130C00013189B2C278120203791A43531E9BB28E
S1130C1040F2CE75AB4201D90320ECE700232380D8
S1130C2001330370238801332380530715D0D5087B
S1130C30EDB20135EDB2861C457023880133238063
S1130C400023300044F2E916C0F20006B04738B978
S1130C5023885D1925800020CDE7D508EDB2EAE7A9
S1130C6041F27103C0F200039847C4E710B582B0A3
S1130C700B88052B02D0032002B010BD4178090275
S1130C8083781943013189B203790BB10320F3E767
S1130C90C278531EDBB2FD2B01D80320ECE7002001
S1130CA001AB5870FF2A0DD0002201AB1A7001234A
S1130CB0012201A844F2E914C0F20004A04720B9BB
S1130CC00020D9E7FE3A1A70F1E741F27103C0F24D
S1130CD000039847D0E7F8B50C000B88052B01D822
S1130CE00320F8BD4178090283781943013189B2A0
S1130CF0C278120203791A43477953070BD0D308F9
S1130D00DBB20133DBB2551EADB240F2AF76B54271
S1130D1004D90320E5E7D308DBB2F4E7BB4201D0F2
S1130D200320DEE70630012344F2E915C0F2000592
S1130D30A84718B9052323800020D2E741F27103A4
S1130D40C0F200039847CCE770B50C000B88052B64
S1130D5001D0032070BD4178090283781943013121
S1130D6089B2C278120203791A43531E9BB240F22D
S1130D70CE75AB4201D90320ECE700232380023374
S1130D800370238801332380530714D0D508EDB2B0
S1130D900135EDB2861C4570238801332380300071
S1130DA044F2ED13C0F20003984738B923885D1963
S1130DB025800020CEE7D508EDB2EBE741F27103C0
S1130DC0C0F200039847C5E710B50B88052B01D086
S1130DD0032010BD4178090283781943013189B297
S1130DE003300123012244F20514C0F20004A04799
S1130DF008B90020EDE741F27103C0F200039847FF
S1130E00E7E770B50C000B88052B01D8032070BDF3
S1130E104178090283781943013189B2C2781202F8
S1130E2003791A434579531E9BB2772B01D90320CA
S1130E30EDE75300DBB29D4201D00320E7E7063023
S1130E40012344F20515C0F20005A84718B905238B
S1130E5023800020DBE741F27103C0F200039847CE
S1130E60D5E770B50C000B88052B01D0032070BDAD
S1130E704178090283781943013189B2027995B224
S1130E806B1E9BB27C2B01D90320F0E70023238047
S1130E9003330370238801332380861C520042707D
S1130EA023880133238000232A00300044F20516EE
S1130EB0C0F20006B04728B96D002388ED182580DC
S1130EC00020D4E741F27103C0F200039847CEE753
S1130ED0F0B5C64600B504000F000B88092B52D9A3
S1130EE045782D0283781D430135ADB2C6783602AC
S1130EF003791E434179090283791943013189B287
S1130F00C2791202037A1A43407A731E9BB27C2B75
S1130F1003D9032004BC9046F0BD0AB90320F9E7C5
S1130F20792A01D90320F5E75300834201D0032035
S1130F30F0E7012320000A3044F20518C0F200084B
S1130F40C04710B1C8B90020E4E700233B80172252
S1130F5022703A8801323A80A01C720062703A888A
S1130F6001323A8032002900C0470028EAD17300D8
S1130F709BB23A889B183B80E4E741F27103C0F2CC
S1130F8000039847C6E70020C4E770B50C000B883F
S1130F90052B01D0032070BD4178090283781943E1
S1130FA0013189B2C5782D0203791D436B1E9BB2B2
S1130FB07B2B01D90320EEE7002323800433037045
S1130FC0238801332380861C6B00437023880133FC
S1130FD023802A00300044F2C103C0F20003984782
S1130FE030B96D00ADB22388ED1825800020D2E71A
S1130FF041F27103C0F200039847CCE770B51500C5
S11310001C0002331F2B01DD042070BD40F2E403F9
S1131010C2F20003187002221A8441B1FD3240F278
S1131020E403C2F200035A701CB90020EDE7002269
S1131030F5E71E00981C2200290046F64163C0F221
S113104000039847023434840020DEE770B50D00B5
S1131050013040F2E401C2F200010C8C220046F699
S11310604163C0F20003984701342C80002070BD16
S1131070012808D018B1072803D0042000E000207C
S113108070470620FCE70220FAE7F0B583B00D00B4
S113109011001A0008AB1E7809AC23780AAC277833
S11310A06C1EE4B2F62C03D90224200003B0F0BD78
S11310B040F20814C2F20004257018B101284AD085
S11310C002243EE040F20810C2F2000041F631145E
S11310D0C0F20004446041F67514C0F20004846058
S11310E041F62D24C0F20004C46041F6AD14C0F2F0
S11310F0000404610024446140F20830C2F200009C
S113110041F6C724C0F20004046040F20030C2F289
S1131110000041F68F34C0F20004046040F2043051
S1131120C2F2000041F63944C0F2000404600197A1
S113113000933300280041F6B504C0F20004A04730
S11311400400002CB1D141F23933C0F200039847B6
S1131150F0BB0324A9E740F20810C2F2000040F2F9
S11311604774C0F20004446040F28D74C0F200047D
S1131170846040F64504C0F20004C46040F2C574C3
S1131180C0F2000404610024446140F20830C2F259
S1131190000040F6D104C0F20004046040F20030C4
S11311A0C2F2000040F67524C0F20004046040F26C
S11311B00430C2F2000040F6BD34C0F20004046002
S11311C0280040F2DD64C0F20004A0470400B8E740
S11311D040F20003C2F2000301221A7065E710B561
S11311E040F20003C2F200031B78012B01D0062059
S11311F010BD40F20813C2F200035B68984740F246
S11312000003C2F2000300221A700020F0E710B5B8
S113121082B040F20003C2F200031B781BB1062423
S1131220200002B010BD6B46D81D41F25B33C0F202
S113123000039847012801D00024F1E76B460733E7
S11312401B78012B03D0022B21D00024E8E740F2C5
S11312500810C2F2000003690200183201001C31B8
S1131260203098470400002862D140F20813C2F2EB
S1131270000320229A5C1B789A4201D0002ACFD125
S1131280022041F24933C0F200039847C8E740F214
S11312900813C2F20003D869017821229954012469
S11312A001329C5400230F2B18DCDA0040F20004B6
S11312B0C2F20004A446624412797AB1914201D088
S11312C00133F0E7DB0063449B6840F20814C2F288
S11312D000042100183198472223E05440F20813F7
S11312E0C2F2000320229B5C23B340F20813C2F233
S11312F0000302329A5C82B140F20813C2F2000386
S1131300012119832031585CA1390143D869017046
S1131310D869198B4C1C1C83425440F20813C2F246
S11313200003DC681878D9691A8BA047002477E792
S1131330002475E7002473E740F22B13C2F2000384
S113134000221A700120704740F22B13C2F20003EE
S113135001221A70587001207047020040F22B13CA
S1131360C2F20003187840B140F22B13C2F200031A
S11313705978117000221A700120704710B540F29C
S11313800033C2F200031B68984710BD10B540F645
S11313900043C4F2002302221A764EF20013CEF266
S11313A00003802109067E329950BFF34F8FBFF3AB
S11313B06F8F642041F6A343C0F200039847C02313
S11313C0DB0540F200425A6140F600025A6110BD4A
S11313D010B540F60043C4F200231B7E5BB2002B21
S11313E006DB40F20833C2F200031B68984710BDC5
S11313F040F60043C4F200231A8D80221A765B8BD8
S1131400DB07F4D540F60043C4F200237F3A5A8345
S1131410EDE740F60042C4F20022917D137E0B40BA
S11314201A0705D540F60042C4F2002208211176BD
S1131430DA0605D540F60042C4F2002210211176E6
S11314409A0605D540F60042C4F200222021117606
S11314505BB2002B00DB704740F60043C4F200236C
S113146080221A76F7E780B240F60043C4F20023E4
S113147018850120704740F60043C4F200231B8DF9
S1131480037001207047000010B5D8B14EF200136C
S1131490CEF2000340F220301A58FF24A243BF3C8E
S11314A022431A5001225A60F1B94EF20013CEF2CF
S11314B000038021C90580229950BFF34F8FBFF3E9
S11314C06F8F10BD4EF20013CEF200038422012070
S11314D09850BFF34F8FBFF36F8F01309850BFF315
S11314E04F8FBFF36F8FDFE7C023DB0540F200426D
S11314F09A6140F600029A61642041F6A343C0F267
S1131500000398474EF20013CEF2000340F21C3160
S11315105A58094810408022120402435A505A581B
S11315201202120A8020000602435A508022D20579
S11315301A601860C5E7C046FFFF00FFF0B5D64645
S11315404F4680B583B0019115001E000AAB1B788D
S11315509A4640F26533C0F200039847012E19D031
S113156076B1022E11D1002740F20109013E082D67
S113157021D0092D13D0072D1BD0002400260FE005
S1131580002740F200090126F1E7002740F2000994
S11315900026ECE7012740F201090126E7E70124D0
S11315A05346012B09D0022B00D1E2E0002500268E
S11315B004E00724F4E70024F2E7002540F2653351
S11315C0C0F20003984740F60043C4F20023DB69ED
S11315D0DB0730D440F60043C4F20023DB699B07E9
S11315E0F8D140F60043C4F200231B689B0715D5CD
S11315F040F60043C4F200231A6802218A431A60A9
S113160040F60043C4F20023DB699B07F8D140F69F
S11316100043C4F20023DB699B07F8D440F600437F
S1131620C4F2002305221A6040F60043C4F20023EA
S1131630DB699B07F8D140F60043C4F20023DB6961
S1131640DB07F8D44B461A060423C4F20003134301
S113165040F60042C4F20022136040F60043C4F294
S11316600023DB699B07F8D140F60043C4F2002352
S11316701A6841490A401A6040F60043C4F2002344
S1131680DB691B07F8D140F60043C4F200231A6853
S11316903A491140802252030A431A6040F600433B
S11316A0C4F20023DB691B07F8D17F0340F2002357
S11316B0C0F203033B43AD012B43234340F60042F6
S11316C0C4F20022536040F60043C4F20023DB69F5
S11316D01B07F8D144F6D573C0F20003019898476C
S11316E046F6F933C0F20003984745F67174C0F228
S11316F0000400220023C4F23013A04745F22174F1
S1131700C0F20004002248F28043C4F26E13A047E2
S113171002000B0046F28144C0F2000400200021C4
S1131720C4F2F001A04744F2F143C0F20003984729
S113173080B240F60043C4F2002398818F229A7548
S11317401F3A1A751A6802218A430A431A6040F63E
S11317500043C4F20023DB699B07F8D140F28B33CA
S1131760C0F200039847300003B00CBC91469A467F
S1131770F0BD012522E7C046FFFFFCFFFFFFCFFFBE
S113178010B540F21431C2F2000140F26424C2F2F6
S11317900004200041F6C173C0F200039847200002
S11317A041F67F73C0F20003984740F20433C2F25B
S11317B000031B68984710BD10B540F26423C2F2C1
S11317C00003DA68136802218B43136013699B07D3
S11317D0FCD140F26423C2F2000340F21432C2F29C
S11317E0000219695160DA68136802218B4313609F
S11317F013699B07FCD140F26420C2F2000041F659
S11318007F73C0F20003984710BD10B540F2143145
S1131810C2F20001886041F28173C0F20003CB6020
S113182000230B7440F26424C2F20004200041F649
S1131830C173C0F200039847200041F67F73C0F2E1
S113184000039847012010BD10B541F2B973C0F2EE
S11318500003984740F26420C2F2000041F63D7351
S1131860C0F20003984710BD10B540F26420C2F2E4
S1131870000041F67F73C0F20003984710BD30B5F5
S1131880FF24FF250EE00378634046F68461C0F22E
S11318900001CC5C6C4046F68471C0F20001CD5C62
S11318A0110001304A1E92B20029ECD128022043D3
S11318B080B230BDF0B587B0039115001E000CABAB
S11318C01F780DAB1C7805A841F68943C0F20003CC
S11318D0984700943B0032002900039841F23D549C
S11318E0C0F20004A047012809D0032405A841F64A
S11318F09743C0F200039847200007B0F0BD44F6B8
S113190000339D4210D86D0047F6A070C0F2170056
S1131910B0FBF5F080B241F60B03C0F20003984728
S1131920012803D00324E1E72320F3E70024DDE7C3
S113193000B583B001A841F68943C0F2000398477B
S113194040F23013C2F2000300221A700021012079
S113195041F28943C0F20003984741F64903C0F2BB
S11319600003984701A841F69743C0F20003984743
S113197003B000BD00B583B001A841F68943C0F2AD
S1131980000398470021002041F28943C0F200037C
S1131990984741F66903C0F20003984701A841F64D
S11319A09743C0F20003984703B000BD70B582B0FE
S11319B006000C00150001A841F68943C0F200039B
S11319C0984740F23013C2F200035B889BB2032BAA
S11319D009D8052401A841F69743C0F200039847AB
S11319E0200002B070BD40F23013C2F200035988E7
S11319F089B240F22830C2F2000041F67F03C0F2FF
S1131A000003984708B10524E4E740F22833C2F202
S1131A1000031A78327040F23012C2F20002528887
S1131A20033A2A80013323600024D3E770B582B0DF
S1131A3006000C00150001A841F68943C0F200031A
S1131A40984740F23013C2F200031B78012B09D0EF
S1131A50052401A841F69743C0F2000398472000EB
S1131A6002B070BD601E40F23014C2F20004606027
S1131A702381067023895D19ADB22581218989B23C
S1131A8041F67F03C0F20003984723899BB25A1C96
S1131A9092B22281C1B240F22832C2F20002D15481
S1131AA023899BB2591C89B22181000AC0B2D05447
S1131AB00123A3720121002041F28943C0F20003F3
S1131AC098470024C5E700B583B06B46D81D41F2A2
S1131AD07743C0F20003984740F23013C2F2000388
S1131AE01B78DBB2012B13D033B1022B2AD0032B8A
S1131AF008D0002003B000BD41F64903C0F2000342
S1131B009847F6E741F64903C0F200039847F0E727
S1131B1040F23013C2F2000300225A805A8892B273
S1131B20511C89B259806946C87940F22831C2F201
S1131B300001885402221A7041F64903C0F20003DE
S1131B409847D6E740F23013C2F200035B889BB299
S1131B50FF2B15D840F23012C2F2000253889BB218
S1131B60591C89B251806A46D17940F22832C2F2B6
S1131B700002D15441F64903C0F200039847B8E784
S1131B8040F23013C2F2000303221A70F2E710B5D8
S1131B9082B040F23013C2F200039B7ADBB21BB175
S1131BA0012B0CD0002407E00021012041F28943DD
S1131BB0C0F2000398470024200002B010BD40F298
S1131BC03013C2F200031B899BB203BB01A841F688
S1131BD08943C0F20003984740F23013C2F2000375
S1131BE000229A72032041F24933C0F2000398475D
S1131BF004000021012041F28943C0F20003984708
S1131C0001A841F69743C0F200039847D4E740F295
S1131C103014C2F2000463681878C0B241F267431A
S1131C20C0F2000398476368013363602389013B72
S1131C309BB223810024BFE710B540F23013C2F2F7
S1131C4000031B78DBB21BB1022B15D0002406E085
S1131C50002041F24933C0F200039847040041F6E2
S1131C606903C0F20003984740F23013C2F2000344
S1131C7001221A70200010BD012041F24933C0F244
S1131C80000398470400EAE7EFF31083036072B699
S1131C90BFF35F8F7047BFF35F8F036883F31088D0
S1131CA0704710B540F23C13C2F200031C6842F2C4
S1131CB00D13C0F2000398470100200042F23113D3
S1131CC0C0F20003984710BD10B540F23C13C2F2B5
S1131CD000031C6842F21D13C0F200039847010080
S1131CE0200042F23113C0F20003984710BD0000F7
S1131CF010B584B01438848B01AB1C80140002929C
S1131D00074A5A800391190042F65903C0F20003AE
S1131D10984710B9200004B010BD0400FAE7C0468B
S1131D200080FFFF10B584B01438848B01AB1C8095
S1131D3014000292074A5A800391190042F659038B
S1131D40C0F20003984710B9200004B010BD04008D
S1131D50FAE7C0460180FFFF70B504000D0047F2AA
S1131D608401C0F20001431E9841C0B25E2242F2D7
S1131D708903C0F2000398472900200042F2A973A6
S1131D80C0F20003984748B941F62553C0F2000356
S1131D90A36141F6F143C0F20003636170BD10B565
S1131DA042F2DD73C0F20003984710BD40F2FF33E6
S1131DB0194001331A400A438283100070471430DB
S1131DC008600020704770B504000D00160098B13B
S1131DD081B1012047F2A001C0F20001342242F295
S1131DE08903C0F2000398472368320029002000C9
S1131DF0984770BD0020EDE70020EBE770B50400C4
S1131E000D00160098B181B1012047F2A001C0F283
S1131E1000013D2242F28903C0F20003984763683F
S1131E20320029002000984770BD0020EDE7002013
S1131E30EBE7F8B5066816B1330000250FE042F26F
S1131E40A303C0F2000398471AE09F68BC466444A9
S1131E50A41A01348F68BC420AD21D001B683BB12E
S1131E605C689442F1D8A41A9F68BC466444F1E7C4
S1131E70B34206D0280042F2D503C0F200039847CB
S1131E80F8BD42F2A303C0F200039847F8E7F8B59F
S1131E900500446903695E1C0661037EDB0702D406
S1131EA0037E9B070AD52B7E02221343DBB22B76DB
S1131EB0F8BD6F69E368200098473C00002CF7D018
S1131EC06368F31AA2689342F2D32F0014373800E0
S1131ED042F2DD03C0F200039847237C012BE8D1D2
S1131EE0666032002100380041F63363C0F200031B
S1131EF09847DEE770B504000D00E8B1D1B10120C8
S1131F0047F2B401C0F200013B2242F28903C0F25D
S1131F10000398472900200042F67733C0F20003FB
S1131F2098470023236141F68F63C0F200032360C6
S1131F30002070BD0020E3E70020E1E710B50400B5
S1131F4047F2B401C0F20001431E9841C0B25322CB
S1131F5042F28903C0F200039847200042F6076367
S1131F60C0F20003984738B9200042F6E353C0F2A8
S1131F7000039847002010BD11204042FBE710B534
S1131F80040047F2B401C0F20001431E9841C0B2FC
S1131F90612242F28903C0F200039847200042F60E
S1131FA00763C0F20003984738B1200042F6F553A6
S1131FB0C0F200039847002010BD11204042FBE707
S1131FC070B582B004000D00002831D000292DD056
S1131FD0012047F2B401C0F200017A2242F28903DF
S1131FE0C0F200039847237E01221343DBB2237619
S1131FF0260014362900300042F28F03C0F2000399
S11320009847B8B923696B6022692900300041F60A
S11320103363C0F200039847237E0122934323765F
S1132020237E9B0718D4002002B070BD0020D0E7A7
S11320300020CEE7237E01229343237647F2B401A6
S1132040C0F200017E32002042F28903C0F2000394
S1132050984712204042E7E701A841F68943C0F2BD
S113206000039847237E022293432376200042F6FE
S11320701D63C0F20003984701A841F69743C0F2DC
S1132080000398470020CFE700B900BE70470368FB
S11320901BB18B4203D01B68FAE700207047012074
S11320A0FCE770B504000D0042F28F03C0F2000398
S11320B0984701235840C0B247F2CC01C0F2000156
S11320C0392242F28903C0F20003984723682B6047
S11320D0256070BD03680B600160704703681BB125
S11320E01A680260180070470020FCE743B2002B16
S11320F00BDB5B091F221040012181404EF20012CC
S1132100CEF2000240339B009950704783001818A8
S113211043011D331E20B3FBF0F0704783001818F1
S1132120430102330320B3FBF0F0642358437047A8
S11321300139FDD8704710B544F20003C4F200130E
S11321405A685A60002042F28D33C0F20003984767
S113215042F23F33C0F20003984742F25B33C0F2CD
S11321600003984742F2D513C0F20003984742F2A5
S11321708B33C0F2000398471F2042F28713C0F24A
S11321800003984710BDC30710D541F60043C4F2BD
S1132190000340F20512C0F201021A6241F6004344
S11321A0C4F200035B687D221A42F7D1830710D57D
S11321B041F60043C4F2000341F20512C0F20402E6
S11321C05A6241F60043C4F200035B687D221A425E
S11321D0F7D1704740F60003C4F2000301221A71DC
S11321E0704700207047000044F20003C4F200135B
S11321F01B8B5B07F8D544F20003C4F200133F22A3
S11322001A7502281BD0042819D0114B184380B228
S113221044F20003C4F20013188044F20003C4F231
S113222000131B7DDB0710D444F20003C4F2001337
S11322301A7D1E231A42F0D01E20404206E044F2CA
S11322400003C4F20013D961DFE700207047C046E1
S113225000A5FFFF10B50100022042F2E913C0F20D
S11322600003984710BD70B506000D0014008306E6
S11322701ED1402A1FD80100442042F2E913C0F2C3
S1132280000398477008002304E041000A800233E9
S11322909BB20130A34209D2E95C8AB2661EB34202
S11322A0F3DAEA18527812020A43EEE7002070BD0E
S11322B00D204042FBE70D204042F8E770B50400D2
S11322C0150042F26723C0F20003984778B944F23C
S11322D00003C4F200131B7ADB0701D43F2D06D898
S11322E02100042042F2E913C0F20003984770BDB4
S11322F030B5440844F20003C4F200131B8B5B079F
S1132300F8D5C30707D501340123984303881B0A72
S11323100B70012303E0002301E002332C009342FD
S11323200BD2651C6400208880B2C854541EA3429A
S1132330F3D25C1C000A0855EFE7002030BD41F2DF
S11323400043C4F20003DA69120A120241F6007172
S11323500A40DA6100221A74704741F20003C4F2A1
S113236000030E221A7641F20003C4F200031B6933
S1132370DB06F8D541F20002C4F20002137E80218C
S113238049420B43DBB213767047704740F2004377
S1132390C4F200039B7803221340984212D040F207
S11323A00043C4F20003FC329A719A7803218A43F1
S11323B008401043987040F20043C4F200039B7934
S11323C0002BF8D0704730B585B001AA47F2EC0372
S11323D0C0F2000332CB32C20023022B08D89A0089
S11323E001A95258824201D00133F6E7D8B200E085
S11323F0002005B030BD10B542F2C733C0F200036F
S11324009847002373B147F24C11C0F2000140F227
S1132410CE32002042F28903C0F200039847012023
S1132420404210BD5900C918CA0047F2EC01C0F27D
S113243000018C4662442421525C904202D0013354
S1132440DBB2DFE758B2ECE770B505000C0008001A
S113245042F2F733C0F200039847C0B2E369DB07E6
S113246021D442001218D30047F2EC02C0F2000259
S1132470944663449A6A1C231A40E3699B07FCD17F
S113248023689B0709D5236802218B432360E369F2
S11324909B07FCD1E3699B07FCD40123134323600E
S11324A0E3699B07FCD1E369DB07FCD44200121803
S11324B0D30047F2EC02C0F20002944663449B6AE4
S11324C02360E3699B07FCD142001218D30047F252
S11324D0EC02C0F2000294466344DB6A6360E36981
S11324E05B07FCD442001218D30047F2EC02C0F29E
S11324F00002944663441A6BE2609A6A120E032344
S11325001A40AA81023B93429B415B42626A0A4998
S11325100A409B0313436362E3695B07FCD44300F3
S11325201818C30047F2EC02C0F200029446634458
S1132530DB8EEB81002070BDFFBFFFFF70B505008F
S113254004692368DB0E01261E4047F24C11C0F2D9
S11325500001431E9841C0B240F2CD5242F28903B9
S1132560C0F2000398476B68012B50D063688B4A14
S113257013406360E3695B07FCD42B885A0551D58B
S11325806A88D20705D56A8840F200410A4392B2AC
S11325906A805B0040F2FE721A40E3695B07FCD478
S11325A0616A44F200030B40134348F200021343F0
S11325B06362E3695B07FCD42E694FF6FF72337ED6
S11325C0DBB21800511E12B10A009B07F7D0236832
S11325D0DB0E01221A40E3695B07FCD4638B9BB2D8
S11325E0C10700D490E09A0730D5012222766A8888
S11325F041F200010A4392B26A806A8868490A403B
S11326006A80DB0700D4C3E0052040429FE0002E2F
S1132610ACD062688023DB0213436360E3695B0729
S1132620FCD4AAE75B00FF2213406A8801210A4018
S11326301A43E3695B07FCD4616A44F200030B406C
S113264013436362E3695B07FCD4B5E75B071BD400
S11326506B885B0535D52A881212520006231A406E
S1132660E3695B07FCD4616A44F200030B40134343
S1132670F12213436362E3695B07FCD46B88494A24
S113268013406B80002062E06B68002B05DD6B88D3
S113269041F2000213439BB26B806B881BB2002B88
S11326A006DB6B883E4A13406B80022040424EE0BA
S11326B06268C0239B0213436360E3695B07FCD435
S11326C0EFE7686888B96B881BB2002B04DB6B8862
S11326D0334A13406B803AE06268C0239B02134381
S11326E06360E3695B07FCD4F1E7AB681A782823DD
S11326F0E254E3695B07FCD4AB680133AB606B68FD
S1132700013B6B60002022E0810744D56968002901
S113271039D05B0737D40139696001B9D2B10129D5
S113272016D06B683BB96B881BB2002B1BDB6B8824
S11327301B4A13406B80AA68531CAB60E3695B07B8
S1132740FCD42823E35C137002232376002070BD9D
S1132750002AE6D062688023DB0213436360E369E6
S11327605B07FCD4DDE763680D4A13406360E369EB
S11327705B07FCD46268C0239B0213436360E36974
S11327805B07FCD4D3E70223237602204042DEE732
S113279004204042DBE70020D9E7C046FFFFFBFFEF
S11327A0FFFEFFFFFFFBFFFF70B504000D0047F2C3
S11327B04C11C0F20001431E9841C0B240F2405295
S11327C042F28903C0F200039847256129002000E2
S11327D042F24943C0F20003984770BD70B504004B
S11327E047F24C16C0F20006431E9841C0B240F2B4
S11327F05D52310042F28905C0F20005A847246900
S11328002000431E9841C0B240F22D623100A84717
S11328102368022213432360E3699B07FCD104204D
S11328204FF6FF71E3695B07FCD4628B1209032343
S11328301340012B0AD001390029F3DC013838B1E7
S113284010236383E3695B07FCD4E9E7002070BDD0
S113285006204042FBE70000F0B5C64600B505007F
S11328600E00046947F24C18C0F20008431E984158
S1132870C0B240F2F852414642F28907C0F2000762
S1132880B8472869431E9841C0B240F2F952414604
S1132890B8473000431E9841C0B240F2FA52414654
S11328A0B8476B88DB0500D511E1738840F200124C
S11328B013439BB273802B00320083CA83C36368C3
S11328C040F2001213436360E3695B07FCD4280001
S11328D042F23D53C0F200039847002800D19DE026
S11328E06B887C4A13406B8004BC9046F0BD052085
S11328F04042A5E073881BB2002B04DB6B88754A49
S113290013406B80F0E76268C0239B02134363604B
S1132910E3695B07FCD4F1E753071BD46B885B05C1
S113292035D52A881212520006231A40E3695B0740
S1132930FCD4616A44F200030B401343F1221343B5
S11329406362E3695B07FCD46B88634A13406B8062
S1132950002063E06B68002B05DD6B8841F2000208
S113296013439BB26B806B881BB2002B06DB6B8816
S1132970584A13406B80022040424FE06268C023F3
S11329809B0213436360E3695B07FCD4EFE7686869
S113299088B96B881BB2002B04DB6B884D4A13404B
S11329A06B803BE06268C0239B0213436360E3696E
S11329B05B07FCD4F1E7AB681A782823E254E36997
S11329C05B07FCD4AB680133AB606B68013B6B60A5
S11329D0002023E0BB0778D56B68002B6DD052072D
S11329E06BD4013B6B600BB900294DD0012B49D04E
S11329F06B683BB96B881BB2002B4EDB6B88354A86
S1132A0013406B80AA68531CAB60E3695B07FCD47A
S1132A102823E35C13700223237600206B88DB05F4
S1132A2000D461E728694FF6FF72037EDBB21F0012
S1132A30511E002A00D15AE70A009B07F5D0002056
S1132A40002800D056E72368DB0E01211940E36912
S1132A505B07FCD4628B92B2FB07BBD5930700D40F
S1132A605AE7012323766B8841F200010B439BB2A2
S1132A706B806B8817490B406B80D30722D50520E8
S1132A804042CBE70029B3D062688023DB021343C2
S1132A906360E3695B07FCD4AAE763680D4A1340EB
S1132AA06360E3695B07FCD46268C0239B02134341
S1132AB06360E3695B07FCD4A0E70223237602206A
S1132AC04042ABE704204042A8E70020A6E70620E6
S1132AD0404209E7FFFEFFFFFFFBFFFF10B5C3689D
S1132AE09A7AD20700D410BD01229A7203689847DB
S1132AF0F9E741F20003C4F20023984206D041F6FC
S1132B000003C4F20023984206D0704740F24013F9
S1132B10C2F200031960F2E740F24013C2F200036C
S1132B205960F2E710B54FF20003CBF6FF53C21819
S1132B30920AD2B2002001280ED847F26811C0F2DE
S1132B40000143001B18DC00635C934202D0013097
S1132B50C0B2F0E740B20DE047F29811C0F20001B4
S1132B6040F24612002042F28903C0F20003984763
S1132B700120404210BD70B506000C00080042F66A
S1132B802533C0F2000398470500F46047F298111A
S1132B90C0F200018F22012042F28903C0F2000337
S1132BA098472369DB0714D423699B07FCD1236866
S1132BB09B0709D5236802229343236023699B075B
S1132BC0FCD123699B07FCD40123236023699B0761
S1132BD0FCD12369DB07FCD46A005219D30047F205
S1132BE06812C0F20002944663445B682360236960
S1132BF09B07FCD16A005219D30047F26812C0F255
S1132C000002944663449A7AE2731A89E2800122AC
S1132C1022735A680C231340082B00D189E0002B3F
S1132C2000D0AEE06A005219D30047F26812C0F235
S1132C300002944663441B8AA3832369C0221A4278
S1132C40FBD16A005219D30047F26812C0F20002A5
S1132C50944663449B8AE3832369C0221A42FBD1CE
S1132C606A005219D30047F26812C0F20002944677
S1132C7063449B89638323699B06FCD401236372A9
S1132C803100200042F6F323C0F2000398476A00A3
S1132C905219D30047F26812C0F20002944663440A
S1132CA05B785BB2002B10DB5A091F210B4001201B
S1132CB098404EF20011CEF20001130020339B0025
S1132CC05850BFF34F8FBFF36F8F6A005219D30070
S1132CD047F26812C0F20002944663445B785BB228
S1132CE0002B0CDB5A091F210B40012098404EF2A7
S1132CF00011CEF20001130060339B0058506B00AA
S1132D005D19EB0047F26812C0F200029446634476
S1132D105B785BB2002B0ADB5A091F210B401E397A
S1132D2099404EF20013CEF200039200D1500020DD
S1132D3070BD6A005219D30063441B69E3612369BF
S1132D40C0221A42FBD16A005219D30047F268121A
S1132D50C0F20002944663445B6923622369C02283
S1132D601A42FBD16A005219D30047F26812C0F22A
S1132D70000294466344DB68A36123699B06FCD488
S1132D807CE7042B00D079E76A005219D30047F29C
S1132D906812C0F20002944663441B7C23772369C3
S1132DA0C0221A42FBD16A005219D30047F26812BA
S1132DB0C0F20002944663441B7D63772369C022FA
S1132DC01A42FBD16A005219D30047F26812C0F2CA
S1132DD00002944663441B7BE37623699B06FCD480
S1132DE04CE7C268136802210B43136013699B0705
S1132DF0FCD17047C268136802218B4313601369C6
S1132E009B07FCD17047C26813699B07FCD1136808
S1132E105B080120184070470020704710B5C06857
S1132E2042F62533C0F200039847040047F2981194
S1132E30C0F2000140F21112012042F28903C0F2F3
S1132E400003984760000019C30047F26812C0F2FB
S1132E50000294466344587842F2ED03C0F2000342
S1132E60984710BD10B540F24013C2F20003186831
S1132E7042F6DD23C0F20003984710BD10B540F2BE
S1132E804013C2F20003586842F6DD23C0F2000387
S1132E90984710BD40F60043C4F20023DB69DB070A
S1132EA030D440F60043C4F20023DB699B07F8D119
S1132EB040F60043C4F200231B689B0715D540F677
S1132EC00043C4F200231A6802218A431A6040F6C0
S1132ED00043C4F20023DB699B07F8D140F60043AA
S1132EE0C4F20023DB699B07F8D440F60043C4F224
S1132EF0002305221A6040F60043C4F20023DB6974
S1132F009B07F8D140F60043C4F20023DB69DB07DA
S1132F10F8D440F60043C4F200230422C4F20002B1
S1132F201A6040F60043C4F20023DB699B07F8D122
S1132F3040F60043C4F200231A6822490A401A608A
S1132F4040F60043C4F20023DB691B07F8D140F6C6
S1132F500043C4F200231A681B4911408022520323
S1132F600A431A6040F60043C4F20023DB691B07DE
S1132F70F8D140F60043C4F2002340F20022C0F22C
S1132F8003025A6040F60043C4F20023DB691B07C6
S1132F90F8D140F60043C4F200230C4A9A810F2270
S1132FA09A75E1321A751A6802218A430A431A6033
S1132FB040F60043C4F20023DB699B07F8D10020EC
S1132FC07047C046FFFFFCFFFFFFCFFF8AFDFFFFF6
S1132FD010B50400002830D00368002B2BD001204A
S1132FE047F2AC11C0F20001502242F28903C0F250
S1132FF00003984723689A681E211142FBD11A786E
S1133000D209E2B99A681E211142FBD11A789207BB
S113301018D41A781A398A431A709A681E211142F0
S1133020FBD1226853780F398B4308210B43DBB261
S11330305370002010BD0020D2E70020D0E71120FB
S11330404042F7E711204042F4E7F8B504000E00CF
S11330501500002844D00368002B3FD0012047F21C
S1133060AC11C0F200017A2242F28903C0F20003DB
S113307098472468A3681E221A42FBD12378DB09EF
S1133080002B00D069E0A3681E221A42FBD12378EA
S11330909B0765D444F26547C0F200073200002361
S11330A028000021B84700295DD1FA239B029842E9
S11330B047D017D9FA235B03984246D02BD9FA2379
S11330C0DB03984245D0FA231B04984243D0FA23E9
S11330D09B0398423BD00D2040422DE00020BEE7E8
S11330E00020BCE747F60053984226D009D841F6A1
S11330F04073984219D043F680639842EBD1012182
S113310014E04FF60023984219D0FA235B02984248
S1133110E1D104210AE0FA23DB02984213D0FA2316
S11331201B039842D7D1072100E0002163780F22C6
S113313093430B4363700020F8BD0221F6E703219B
S1133140F4E70521F2E70621F0E70821EEE709217B
S1133150ECE70A21EAE70B21E8E711204042EBE71C
S113316011204042E8E70D204042E5E710B5040095
S1133170D0B10368B3B1012047F2AC11C0F2000131
S1133180FB2242F28903C0F20003984721680B78BE
S113319002221343DBB20B708B681E221A42FBD14E
S11331A0002010BD0020E7E70020E5E710B504008B
S11331B0B8B103689BB1012047F2AC11C0F2000121
S11331C040F2191242F28903C0F2000398472268C0
S11331D0A523137393689B06FCD4002010BD002024
S11331E0EAE70020E8E740F24813C2F200030122B4
S11331F01A70704710B50400A8B103688BB10120A0
S113320046F65461C0F20001A92242F28903C0F2D9
S113321000039847200043F2AD13C0F2000398471F
S113322010BD0020ECE70020EAE710B518E000200C
S113323046F65461C0F200016F2242F28903C0F2E3
S11332400003984740F22820C2F2000040F6000232
S113325040F2E83143F24B03C0F200039847E8B16F
S113326040F22823C2F200031B68002BDFD00120A8
S1133270DEE7002046F65461C0F200018C2242F2DF
S11332808903C0F20003984740F22820C2F20000EC
S113329043F26D13C0F20003984740B140F2282373
S11332A0C2F200031B68002BE3D00120E2E710BD4B
S11332B010B540F24811C2F200010123CB6043F281
S11332C0E713C0F200030B6100230B75043140F2D5
S11332D00C24C2F20004200041F6C173C0F20003C2
S11332E09847200041F63D73C0F20003984710BD93
S11332F0F0B5D6464F464646C0B586B040F2611397
S1133300C0F20003984743F22B23C0F2000398470E
S113331040F24425C2F20005280041F69F53C0F252
S11333200003984740F2B044C2F200042100280090
S113333041F6BF53C0F200039847022206212068D9
S113334041F6C755C0F20005A8472068022243F29F
S1133350A201A84740F22825C2F20005280043F242
S1133360F514C0F20004A047C026F6058027776153
S11333700A2041F6C943C0F200039847B7614420CC
S113338044F22926C0F20006B0472800A04742F2C2
S1133390E313C0F2000398472800A04743F6814393
S11333A0C0F2000398472800A04740F28803C2F205
S11333B00003598940F2E042C2F200025180998927
S11333C01180D98940F2C042C2F200025180198AA8
S11333D01180598A40F24042C2F200025180998A17
S11333E01180D98A40F2C442C2F2000251801B8B80
S11333F013802800A04743F2B123C0F2000398478A
S11334002800A0474420B04740F28F53C0F2000385
S1133410984740F24763C0F20003984740F2802384
S1133420C2F2000338229A5C12023921595C11431A
S113343040F29C12C2F20002402011523A21585C20
S113344000020131595C0143422011523C21585C75
S113345000020131595C0143482011523E21595C5C
S1133460090209381B5C0B434A2153520DE040F218
S11334704813C2F200031A8B01321A8340F2481334
S1133480C2F200031B78002B47D141F20F23C0F294
S11334900003984740F26043C2F200031870072803
S11334A0ECD88000A84B1B589F4640F24813C2F248
S11334B000035A8B01325A83E0E740F24813C2F208
S11334C000039A8B01329A83D8E740F24813C2F280
S11334D00003DA8B0132DA83D0E740F24813C2F2F8
S11334E000031A8C01321A84C8E740F24813C2F26E
S11334F000035A8C01325A84C0E740F24813C2F2E6
S113350000039A8C01329A84B8E740F24813C2F25D
S11335100003DA8C0132DA84B0E740F24814C2F2D4
S11335200004E38CA28C9B189BB2628C9B189BB208
S1133530228C9B189BB2E28B9B189BB2A28B9B188C
S11335409BB2628B9B1840F28402C2F20002138089
S113355040F28842C2F2000240F26841C2F2000125
S1133560442044F26B23C0F2000398472823E0541C
S1133570002877D100212922A15440F24813C2F235
S1133580000329229B5C052B08D940F24813C2F2A0
S11335900003283A2A215A5401315A5440F28843EC
S11335A0C2F200031E685F6840F24813C2F20003CF
S11335B01A6B5B6B44F29534C0F20004300039009E
S11335C0A047002857D040F24813C2F20003382124
S11335D05A5C01325A5440F26843C2F200031E6836
S11335E05F6840F24813C2F200031A6C5B6C44F249
S11335F09534C0F2000430003900A047002844D0BC
S113360040F24813C2F2000348215A5C01325A5472
S113361040F24813C2F2000349229B5C022B05D9F5
S113362040F24813C2F200030021995440F24813B7
S1133630C2F2000349229B5C9946DA0040F2284317
S1133640C2F200039C46624440F26843C2F20003A3
S11336501868596810605160002000211860596092
S1133660002534E040F24813C2F2000329215A5CD9
S113367001325A5481E740F24813C2F20003002198
S1133680382299541E635F63A5E740F24813C2F2DF
S113369000030021482299541E645F64B8E7EB00DC
S11336A040F22842C2F20002944663441A685B68FE
S11336B040F26844C2F2000445F26106C0F200061A
S11336C020686168B047206061600135EDB240F266
S11336D08403C2F200039F780324E41BA542DEDBCB
S11336E046F67533C0F200032000984702000B0031
S11336F00092019340F26845C2F2000545F221763A
S1133700C0F2000628686968B04702000B00029204
S113371003932A606B604B46DA0040F27043C2F2B6
S113372000039C46624440F28843C2F200031868D6
S1133730596810605160002000211860596000250C
S1133740B84627001AE0C046C4710000EB0040F2FE
S11337507042C2F20002944663441A685B6840F205
S11337608846C2F2000645F26104C0F200043068E3
S11337707168A047306071600135EDB2AF42E5DC9D
S1133780474640F28846C2F2000645F22174C0F270
S11337900004009A019B30687168A04704000D0082
S11337A03460756040F24812C2F200024B460133A5
S11337B0492153542FB140F28402C2F200027B1E0D
S11337C0937046F69D43C0F200030298039998470C
S11337D040F2C043C2F20003196844F68113C0F2F8
S11337E00003984740F2E043C2F20003196844F230
S11337F02D53C0F200039847061C40F26443C2F202
S11338000003186044F21543C0F200030021CCF217
S113381020219847002800D19AE140F26443C2F283
S113382000030022CCF220221A6046F69D43C0F227
S1133830000320002900984740F2C443C2F2000369
S1133840196844F68113C0F20003984740F24043DC
S1133850C2F20003196844F22D53C0F200039847E2
S1133860041C40F29043C2F20003186044F2154372
S1133870C0F2000300219847002800D07DE144F203
S11338803D43C0F200030021C4F2C821201C984724
S113389038B140F29043C2F200030022C4F2C822BD
S11338A01A6040F26443C2F200031B681A1C46F615
S11338B0F933C0F200030592101C984745F26105E4
S11338C0C0F2000546F26662C6F2666241F2662301
S11338D0C4F2710300900191A84746F69D44C0F2DA
S11338E00004A047061C40F2DC43C2F20003186047
S11338F045F67177C0F200074CF6CD42CCF6CC42C7
S11339004CF6CC43C3F6FC7300980199B8470022E7
S11339100023C4F24003A847A04740F2CC43C2F2BC
S113392000030290186040F24813C2F200032822F8
S11339309B5C002B00D0BAE040F2DC43C2F20003EF
S11339405A8840F29C14C2F20004A2871B88E387C1
S113395040F26443C2F2000359884022A1521A88FB
S11339604223E25240F2CC43C2F20003598844227B
S1133970A1521A884623E25240F29047C2F200074D
S11339807A880233E2523B884A25635346F6F93A71
S1133990C0F2000A301CD04745F67179C0F2000924
S11339A000220023C4F24903C84744F2F148C0F29C
S11339B00008C0474C23E05200220023C4F25903FC
S11339C000980199C847C0474E23E0520298D04757
S11339D000220023C4F24903C847C0475023E052E1
S11339E039680091081CD04700220023C4F259030F
S11339F0C847C0475223E05244F6F96AC0F2000AAD
S1133A00301CD04700B25423E05244F63579C0F25A
S1133A100009C847011C44F6D938C0F20008301C1C
S1133A20C04744F68117C0F200070021C4F27A416E
S1133A30B84744F2C146C0F20006B0475623E052EC
S1133A400598D04700B25823E052C847011C059896
S1133A50C0470021C4F27A41B847B0475A23E05224
S1133A600298D04700B25C23E052C847011C029878
S1133A70C0470021C4F27A41B847B0475E23E05200
S1133A800098D04700B26023E052C847011C009858
S1133A90C0470021C4F27A41B847B0476223E052DC
S1133AA040F24813C2F200035A5B01325A5340F207
S1133AB09C13C2F2000340F24812C2F200024A21EF
S1133AC0505A1A3158521839505A1A3158521E390C
S1133AD0515C682019523038105C6A241853413CF8
S1133AE0145D6C229C52632901D8632808D940F2E2
S1133AF04813C2F2000301224E215A5423395A5466
S1133B0040F24813C2F200032B229B5C012B3BD0F2
S1133B1040F24813C2F200032A22995C4A424A4105
S1133B204E21595C4B424B41134200D082E040F29B
S1133B304811C2F2000100230B70043140F20C2042
S1133B40C2F2000041F6C173C0F2000398479CE43E
S1133B5044F23D43C0F200030021C4F2FA21301CB8
S1133B609847002800D160E640F26443C2F20003A3
S1133B700022C4F2FA221A6057E640F29043C2F2DD
S1133B80000300221A608CE640F24813C2F20003DC
S1133B9024329B5C002BBBD140F22823C2F20003E9
S1133BA01B68002B44D0012046F65461C0F200018A
S1133BB0A92242F28903C0F20003984740F2282068
S1133BC0C2F2000043F2AD13C0F20003984740F282
S1133BD09C12C2F200024023D15A0C0A40F2802304
S1133BE0C2F2000338201C54013019544221515AA6
S1133BF00C0A01301C54013019544821515A0C0A42
S1133C0001301C54013019544A21525A100A0C39FB
S1133C10585401315A5440F2C753C0F20003984734
S1133C2040F24813C2F200034F22012199546FE776
S1133C300020B9E740F22823C2F200031B68E3B175
S1133C40012046F65461C0F20001A92242F2890320
S1133C50C0F20003984740F22820C2F2000043F269
S1133C60AD13C0F20003984740F24813C2F20003B8
S1133C704C215A5A01325A5259E70020E1E7C04612
S1133C80F0B5DE4657464E464546E0B593B00023B0
S1133C900CE047F2F822C0F20002D05C40F29C1221
S1133CA0C2F20002590088520133DBB2092BF0D969
S1133CB000230EE019000A3147F20432C0F2000278
S1133CC0D05C40F29C12C2F20002490088520133D7
S1133CD0DBB20D2BEED947F2F423C0F200031A78BD
S1133CE012025B78D21840F29C13C2F200031A86C7
S1133CF047F2F021C0F200010A7812024978521802
S1133D005A8647F2EC22C0F2000211789986517863
S1133D10D98692781A8711AA47F20823C0F20003C1
S1133D20198811809B78937040F28F53C0F200037E
S1133D30984740F2C023C2F20003187840F2880288
S1133D40C2F2000210805C78548099788A4691808F
S1133D50DD78D580197904916946098A11819E79A3
S1133D60B1463602DF79BB463E4356811E7A089639
S1133D7036025F7A0C973E4396819E7AB0463602AD
S1133D80DF7A05973E43D6811E7B099636025F7B18
S1133D900D973E4316829E7BB4463602DF7B069720
S1133DA03E4356821E7C0A9636025F7C0E973E4343
S1133DB096829F7C3902DE7C07963143D1821E7D38
S1133DC00B9636025B7D0F931E4316830138C0B2F7
S1133DD0F6280ED913006F221A8040F2C023C2F2D3
S1133DE000031A700023082C1DD8A400B34A1259EA
S1133DF09746FF23F7E740F2582625E040F6601681
S1133E0022E041F2C0261FE042F280561CE044F654
S1133E10003619E049F2006616E04EF2001613E08F
S1133E20E126760210E040F28803C2F20003052284
S1133E305A8040F2C023C2F200035A7044F600369E
S1133E40002301E040F2B0465246082A0BD040F26B
S1133E508803C2F2000308229A8040F2C023C2F20F
S1133E6000039A700023012D00D190E085B1022D4A
S1133E7000D18AE040F28803C2F200030222DA8011
S1133E8040F2C023C2F20003DA700224002300E0EF
S1133E90002404990139C9B201290BD940F28803DD
S1133EA0C2F2000301221A8140F2C023C2F20003CD
S1133EB01A7100234A46FF2A6BD04246FF2A00D1DA
S1133EC083E06246FF2A00D1A0E0FF2F00D1B9E0D1
S1133ED0002B00D1D7E0C027FF0540F200437B61EF
S1133EE040F600037B614EF20012CEF2000240F273
S1133EF01C3013581B021B0A802109060B43135064
S1133F00116010A841F68943C0F2000398473D6848
S1133F1043F20003C4F200031A6A3B6953401D4094
S1133F20554010A841F69743C0F2000398472B016F
S1133F3000D5AEE0012302930133019306330093CD
S1133F4044F6003301220121002041F28B04C0F227
S1133F500004A0470028EDD1032311AA0121342035
S1133F6040F6FD74C0F20004A0470028F4D141F2E9
S1133F70DF13C0F2000398470028F8D113B03CBC0B
S1133F8090469946A246AB46F0BD022481E701243F
S1133F907FE75A46FF2A90D1089AFF2A00D08CE77F
S1133FA00C9AFF2A00D088E740F2C023C2F2000333
S1133FB000225A721A72DA719A7140F28803C2F2BC
S1133FC000039A815A81002377E7059AFF2A00D0DB
S1133FD077E7099AFF2A00D073E70D9AFF2A00D0E9
S1133FE06FE740F2C023C2F20003C03A9A72413232
S1133FF0DA7200225A731A7340F28803C2F2000381
S113400043F68071D9811A8200235AE7069AFF2A5F
S113401000D05AE70A9AFF2A00D056E70E9AFF2AE0
S113402000D052E740F2C022C2F200020023937390
S1134030D3731374537440F28802C2F200025382A1
S1134040938242E7079AFF2A00D041E70B9AFF2A9E
S113405000D03DE70F9AFF2A00D039E740F2C02391
S1134060C2F20003C03A9A744132DA7400221A751B
S11340705A7540F28803C2F2000343F68071D98274
S11340801A83002324E740F21753C0F20003984731
S113409021E740F2C023C2F2000319789A781B7911
S11340A002930194009233000122002041F28B0517
S11340B0C0F20005A8470028EBD14DE7E4710000E9
S11340C030B5D9B15318382B1ADC40F28803C2F248
S11340D000031B8DC91A0DE040F29C13C2F20003C9
S11340E04D00EC5A240A04705B5D43700131013ABF
S11340F092B20230002AEFD1002000E0012030BD4E
S11341000120FCE770B500296AD05418152C00DD95
S113411068E040F28804C2F20004648D091B8BB18C
S1134120012B22D000205CE040F28803C2F200039D
S11341304D00EC5A240A04705B5D43700131013A6E
S113414092B20230002AEFD100204AE003781B0229
S113415040F28804C2F200044D002B5346783343E6
S11341602B530131013A92B20230002AEED140F2CF
S11341708802C2F20002117840F2C023C2F20003A6
S1134180197091785970117999709179D970117A5F
S113419019715189080A9871D9719189080A18729C
S11341A05972D189080A9872D972118A080A187347
S11341B05973518A080A9873D973918A080A187432
S11341C05974D18A080A9874D974128B110A197512
S11341D05A7540F21753C0F200039847002000E0DC
S11341E0012070BD0120FCE70120704701207047C9
S11341F070B50600FF2011E04000C0B26400013336
S1134200DBB2072B08D8250045402D06F4D5400025
S113421031256840C0B2F1E70131C9B2914202D8F8
S1134220745C0023EDE770BD00B583B001B240F2C9
S11342304420C2F2000040F6000241F6AD53C0F241
S11342400003984701A922230B7014334B7040F2EA
S1134250B043C2F200031868022241F6C753C0F209
S113426000039847002003B000BDF0B5CE46474692
S113427080B583B00D00140001B240F24420C2F2B4
S1134280000040F6000241F6AD53C0F20003984727
S113429040F2B043C2F2000318680622694641F6B0
S11342A0FD53C0F2000398476B469E78012200211B
S11342B0684644F2F113C0F200039847864205D0E1
S11342C0012003B00CBC90469946F0BD6B465E7964
S11342D004220321684644F2F113C0F20003984714
S11342E0864201D00120ECE76B46187800025B7827
S11342F0C01846F67539C0F20009C84745F671780A
S1134300C0F2000800224EF20003C4F26503C04765
S113431045F22177C0F2000700224FF6E073C4F2A1
S1134320EF03B84746F28146C0F20006002248F285
S11343300003C4F24603B047286069606B46D8782E
S113434000021B79C018C847002244F20003C4F2DB
S11343505F03C04700224FF6E073C4F2EF03B8478F
S113436000220023C4F21803B047206061600020DB
S1134370A7E700008446101C62468C46191C63465D
S113438000E0C0461FB501F091FD002801D40021D2
S1134390C8421FBD10B501F0EBFC4042013010BD16
S11343A010B501F083FD002801DB002010BD0120C1
S11343B010BDC04610B501F079FD002801DD0020D4
S11343C010BD012010BDC04610B501F00DFD002840
S11343D001DC002010BD012010BDC04610B501F065
S11343E003FD002801DA002010BD012010BDC046E5
S11343F08446081C6146FFE71FB500F083FA0028D5
S113440001D40021C8421FBD10B500F01BFA404280
S1134410013010BD10B500F075FA002801DB002052
S113442010BD012010BDC04610B500F06BFA002885
S113443001DD002010BD012010BDC04610B500F004
S113444027FA002801DC002010BD012010BDC04661
S113445010B500F01DFA002801DA002010BD01207B
S113446010BDC046F0B54FF6FF75CE4647462C004A
S1134470154099462B000440160C80B5070C634385
S11344807D43774366431C0C7619A4199C46A542C8
S113449003D980235B0298464744250CEF196346F1
S11344A04FF6FF751D404B465143434324046419A2
S11344B05918C91920000CBC90469946F0BDC04655
S11344C09E2110B5C905041CFFF7C2FF18B9201CB2
S11344D000F012FD10BD9E21201CC90500F07CFBDC
S11344E000F00AFD80231B069C466044F2E7C046A8
S11344F0002370B50022C4F2E01304000D00FFF79E
S11345006DFF20B92000290002F006FB70BD0023D6
S11345100022C4F2E0132000290001F0B1FF02F0F0
S1134520FBFA80231B069C466044EFE7F0B5C646C1
S11345304E024702760A7B0A4400C50FF700480082
S1134540984600B5240E2A00DB00000EC90FBC46B5
S11345508D4267D0221A002A00DCA5E000283AD157
S1134560002F00D193E0511E002900D0BBE00124AC
S1134570DB1B5A0146D59B019E09300002F01AFC50
S113458005388640844200DD9CE0041B3200202074
S11345900134E240041BA64033005E1EB3410024F4
S11345A013435A0704D00F221A40042A00D00433BC
S11345B05A0129D50134FF2C00D180E02A009B0147
S11345C05B0AE4B25B02E405580AD20720431043B5
S11345D004BC9046F0BDFF2CE3D080213800C90410
S11345E0084384461B2A00DD81E020206146D14037
S11345F0821A604690400200501E82410A439B1A70
S11346005A01B8D45A07CED1DE082A00FF2C3AD179
S1134610002E00D1ACE08023DB0333435B025B0A52
S1134620FF24CFE7211A002951DD90B3FF2CB8D025
S113463080203E00C0040643B4461B2900DDA9E0E7
S113464020266046C840711A66468E4031004E1ED0
S1134650B14101435B185901D4D50134FF2C00D179
S113466086E0012275491A405B080B40134398E722
S1134670002C00D0A3E0002B00D0B1E03B00002FC1
S113468060D10026002273025B0AE4B29AE71400A8
S113469087E7002F4BD0481E002855D163440124DE
S11346A05A01AFD50224DCE722BB621CD2B2012A34
S11346B0DEDDDE1B720134D5FE1A0D005DE72A0033
S11346C000237FE733005E4A241A134069E7002978
S11346D062D1611CC8B201284DDDFF2948D0634472
S11346E05B080C005DE7FF2A40D00A007AE701224C
S11346F09B1A85E7ECB1FF2822D08024E4045242BF
S113470023431B2A00DD86E01C002025D440AA1A7E
S113471093405A1E9341234362460400D31A0D006A
S113472027E7002E00D028E700220024ABE70C0086
S113473037E7002B49D0D243002AEDD0FF28E0D13F
S11347406346FF240D002CE7FF290FD0010074E716
S1134750002B5DD0FF24002F00D122E780224146A8
S1134760D203114202D0164200D13B00FF2418E7C5
S1134770FF24002326E7002CEAD1002B54D0002F7D
S113478000D10EE763445A0100D43BE72C4A0C00E5
S1134790134006E701215DE7DCB9F3B3C94359B11E
S11347A0FF2835D01B2947DC1C002026CC40711A79
S11347B08B40591E8B412343634404004BE7C3B928
S11347C03B006FB30D00FF24EBE63B0004000D003B
S11347D0E7E6FF281CD08024E40449422343E1E7B0
S11347E0002F00D1DDE6DE1B72011FD5FB1A0D0080
S11347F0D7E6FF24002F00D1D3E680224046D2031F
S11348001042B3D01642B1D13B000D00FF24C8E6DC
S11348106346FF24C5E601237EE73B000400C0E6AF
S113482080260022F603F6E63B00BAE63300002EAB
S113483000D0E7E6002226E70123BDE7FFFFFF7D66
S1134840FFFFFFFB70B5420045024E024C00C30F50
S11348506D0A120E760A240EC90F0120FF2A06D013
S1134860FF2C03D0A24201D1B54206D070BD002D69
S1134870FCD1FF2CFAD1002EF8D18B4206D00120B6
S1134880002AF3D12800451EA841EFE70020EDE7F8
S1134890F0B5420045024C02C30F48006D0A120EE7
S11348A0640A000EC90FFF2A1DD0FF2810D03AB9A0
S11348B06E426E41F6B280B97CB900203DB103E08E
S11348C000B90CB18B4211D0012158420843F0BD0C
S11348D0002CECD002204042F9E7002EF2D0012057
S11348E001390843F3E7002DDFD0F3E78242EBDC24
S11348F004DBA542E8D80020A542E8D20121581ED5
S11349000843E4E7F0B542004D024C004602760A43
S1134910120EC30F6D0A240EC90FFF2A16D0FF2CE6
S113492010D042B970427041C0B29CB120B1012094
S113493001390843F0BD9CB1994214D001205B4277
S11349401843F7E70220002DF4D1EAE70220002EF5
S1134950F0D1E4E7002DE9D10020002EEAD0EDE704
S1134960002DE9D1EAE7A24206DCE0DBAE4203D83F
S11349700020AE42DBD3DDE7012049420843D9E7FA
S1134980F0B546464F46D6464302C0B546005B0ADC
S1134990360E88469946C40F002E51D0FF2E23D0E0
S11349A08020DB00C00418438146002740F2000A3F
S11349B07F3E434658005D02000EDB0F6D0A9846A9
S11349C008B3FF2842D0EB008025ED041D430023EB
S11349D07F38414636186140701C1F430F2F69D839
S11349E07B4ABF00D2599746002B48D14346580012
S11349F05D02000EDB0F0827FF2640F2020A6D0A53
S1134A0098460028DDD1002D3ED100200123E0E7A7
S1134A104146022B20D0032B00D1CFE0012B00D044
S1134A20ADE0002200201940CCB24002D205400A79
S1134A30E407104320431CBC90469946A246F0BDAF
S1134A407BB90427002640F2010AB2E7FF200223C3
S1134A50002DBED00323BCE70124FF220C4000201C
S1134A60E3E7180002F0A6F94A46431F76269A4067
S1134A7076429146361A002740F2000A99E70C273D
S1134A80FF2640F2030A94E7280002F093F9431F3B
S1134A909D4076235B42181A00239AE78020002465
S1134AA0C003FF22C1E74D465346B2E74D462100FD
S1134AB05346AEE74B461B0C98464A464FF6FF73E7
S1134AC01A402B401C0054432F0CA4464546444630
S1134AD07D43574362466343120CFF18D219934235
S1134AE003D980235B029846454467464FF6FF731B
S1134AF014043B40E418A3015F1EBB41120CA40E36
S1134B0055191C43AD0125432B0104D5012306008F
S1134B106A081D40154332007F32002A27DD6B07E7
S1134B2004D00F232B40042B00D004352B0103D5D4
S1134B303200284B80321D40FE2A8DDC0124A8015E
S1134B40400AD2B20C4070E780204B46C0030342B7
S1134B5008D0054205D128434002400A4446FF22BA
S1134B6063E74B4618434002400AFF225DE70124F5
S1134B70A31A1B2B05DD0C400022002055E706007C
S1134B80C9E72A002020DA40C31A9D402B005D1E8D
S1134B90AB4113435A0704D00F221A40042A00D011
S1134BA004335A0104D5012401220C4000203CE7BF
S1134BB001249B01580A0C40002236E7802001247E
S1134BC0C00328434002400A0C40FF222DE7C046A0
S1134BD00C720000FFFFFFF7F8B5CE4647464400CD
S1134BE0C20F80B547024802400A844666467B0AE3
S1134BF048009946240E1500DB00000EC90FF6008C
S1134C00FF2800D18DE040F20108474679409142E7
S1134C1065D0221A002A00DC9CE000283CD1002E3A
S1134C2000D18AE0511E002900D0B3E001249B1B6F
S1134C305A0143D59B019F09380002F0BBF805389F
S1134C408740844200DD94E0041B3A0020200134B4
S1134C50E240041BA7403B005F1EBB4100241343FA
S1134C605A0704D00F221A40042A00D004335A01F0
S1134C7026D50134FF2C00D177E001229B015B0A89
S1134C80E4B22A405B02E405580AD20720431043E9
S1134C900CBC90469946F8BDFF2CE1D08021C90494
S1134CA00E431B2A7ADC31002020D140821A964020
S1134CB0721E96410E439B1B5A01BBD45A07D1D195
S1134CC00122DF082A40FF2C33D1002F00D1A6E0B7
S1134CD08023DB033B435B025B0AFF24D2E7211AF8
S1134CE000294BDD58B3FF2CBAD08020C004064302
S1134CF01B2900DDACE030002027C840791A8E4023
S1134D00711E8E4106439B195901D7D50134FF2CDE
S1134D1000D184E0012276491A405B080B4013431A
S1134D209EE7002E00D072E76DE73B00002FC5D14F
S1134D3000227B025B0AE4B2A4E7140090E7002E91
S1134D404BD0481E002855D19B1901245A01B5D5D2
S1134D500224DFE72ABB621CD2B2012A71DD9F1B49
S1134D607A0134D5F71A0D0066E7012200232A40A0
S1134D7088E73B005F4A241A134071E7002969D190
S1134D80611CC8B201284DDDFF2948D09B195B087E
S1134D900C0065E7FF2A40D00A0082E701269B1B2E
S1134DA08AE7E4B1FF2821D08024E404524223435B
S1134DB01B2A00DD90E01C002025D440AA1A934051
S1134DC05A1E93412343F31A04000D0030E7002FC9
S1134DD000D031E700220024ABE70C0040E7002BB1
S1134DE052D0D243002AEED0FF28E1D13300FF2471
S1134DF00D0035E7FF2910D0010079E7002B68D0BA
S1134E00FF24002E00D12BE780224946D203114211
S1134E1003D06146114200D13300FF2420E7FF2470
S1134E2000232FE7002CE9D1002B5DD0002E00D108
S1134E3016E79B195A0100D440E72E4A0C00134090
S1134E400EE7DCB95BBB002E4BD033000D0007E747
S1134E50012658E7E4B9002B40D0C94359B1FF28D3
S1134E6037D01B2942DC1C002027CC40791A8B4008
S1134E70591E8B4123439B19040045E7CBB926BB3C
S1134E8080270022FF0323E7330004000D00E7E638
S1134E90FF281ED08024E40449422343E1E7002E86
S1134EA000D1DDE69F1B7A0100D43EE7F31A0D0022
S1134EB0D6E6FF24002E00D1D2E680224846D20353
S1134EC01042AAD060461042A7D133000D00FF243F
S1134ED0C6E63300FF24C3E6012374E7330004006D
S1134EE0BEE60027002224E73300B9E60123C2E727
S1134EF0FFFFFF7DFFFFFFFB41024300C20F490A92
S1134F001B0E00207E2B0CDD9D2B0BDC802000046F
S1134F100143952B09DC9620C31AD940484202B9B3
S1134F2008007047024BD018FBE7963B9940F5E721
S1134F30FFFFFF7F70B5002830D0C317C4185C4052
S1134F40C50F200001F036FF9E231B1A962B0DDCA3
S1134F509622D21A94402A006402640ADBB26402E4
S1134F60DB05600AD2071843104370BD992B19DC86
S1134F709922D21A002A29DD94402200144C1440AC
S1134F80510704D00F210A40042A00D004346201DE
S1134F9013D4A401640ADBB22A00E0E70022002350
S1134FA00024DCE705222100121AD140B922D21ACA
S1134FB09440621E94410C43DAE7054B2A001C40DE
S1134FC09F23A4011B1A640ADBB2C8E72200D5E7B9
S1134FD0FFFFFFFB10B5040038B301F0EBFE9E2386
S1134FE01B1A962B0ADC9622D21A94406402640A95
S1134FF0DBB26402DB05600A184310BD992B17DC91
S11350009922D21A002A27DD94402200134C14401E
S1135010510704D00F210A40042A00D0043462014D
S113502012D4A401640ADBB2E3E700230024E0E71E
S1135030B9222100D21A91400A00511E8A41052149
S1135040091ACC401443DBE7044B1C409F23A40102
S11350501B1A640ADBB2CCE72200D7E7FFFFFFFB91
S1135060F8B557464546DE464E460C03E0B54D00BE
S1135070CF0F610A440F0C43C60019035800DB0F1D
S11350809B464B0A510F0B436D0D1900D300A846E4
S1135090400D3D009A465F4500D1B7E045462D1AC4
S11350A0002D00DC09E198B90B0052461343002B94
S11350B000D1E8E06B1E002B00D059E1B21A9642F1
S11350C0B641641A7642A41B40F20108160021E09E
S11350D040F2FF7398454BD080231B041943382DAD
S11350E000DD23E11F2D00DD5AE120200B00401BD1
S11350F083401A005346EB40134352468240501EED
S11351008241E9401A43B21A611A9642A441160038
S113511064420C1B230269D56402650A002D00D188
S1135120EAE0280001F046FE0300083B1F2B00DDE7
S1135130EBE020223400D21AD4409D409E40254307
S11351404246984500DDE8E09B1A5A1C1F2A00DD00
S113515015E12023300029009B1AD04099409E403D
S11351602C000143701E8641D44040F200080E43D7
S1135170730709D00F233340042B05D0331DB342EA
S1135180B6417642A4191E00230231D5434640F2AB
S1135190FF720133934200D1C4E03D00CE49F608CA
S11351A00C40600764020643240B1A4000212403C8
S11351B0230B0C0D24051C4313054FF6FF72C8F294
S11351C00F02144023435B00ED075B082B433000C0
S11351D019003CBC90469946A246AB46F8BD6446CD
S11351E00443002C00D154E2040066467307C1D185
S11351F03D006007F6080643E40840F2FF7290455C
S113520034D043462403240B1A40CFE743461B1AE9
S1135210002B00DC90E0C0B340F2FF708045A7D0C3
S1135220802000040143382B00DC00E152460A438D
S1135230511E8A4100219219B242B64109197442A1
S113524016000C192302D1D540F2010C40F2FF7371
S1135250E044984500D154E101209F4B1C40730861
S113526006401E43E0070643640881E723003343F6
S1135270002B00D106E280231B031C432403240BD0
S113528040F2FF7292E7A84672E7080052461043C4
S1135290002800D1C9E0581E002800D0EEE0B21862
S11352A0B2429B4164185B42E418160040F20108C4
S11352B023029BD540F20208CEE7002D00D080E007
S11352C04046451C40F2FF702840012800DC05E1FF
S11352D0F01A844686428041651A40422D1A2A02F9
S11352E000D497E09E1BB24592410C1B5242A51A72
S11352F05F46002D00D014E7300001F05BFD203044
S11353000300083B1F2B00DC13E7350028388540D9
S113531000264246984500DC16E76F4CD31A98469F
S11353202C4025E73D00002400263FE752460A436F
S1135330511E8A410021E6E6002B00D0F8E040F23D
S1135340FF704346020001331A40012A00DCA4E046
S1135350834200D1D3E05246B218B242B641641837
S11353607642A419E6075208164364089846FFE6F5
S113537040F2FF70854200D188E01D00AFE62900AD
S11353801F3BD940202A00D183E040239A1A95403C
S11353902E43751EAE4100240E4340F2000825E75B
S11353A02B000800203BD8400300202D73D0402060
S11353B0451BA94052460A43511E8A4100211A4303
S11353C0A1E64246002A47D040F2FF77B8424FD0C8
S11353D080273F046D423C43382D00DDEEE01F2D55
S11353E000DD59E120277A1B2700944697403200BC
S11353F0EA40174362469640721E9641EC403E4393
S113540053469E1BB24592410C1B5242A41A80463D
S11354105F467FE664462C436646002C00D07DE65A
S1135420002540F200080026E7E69846A0E61F2B78
S11354306ADC2020C21A0800944690405246DA40A2
S1135440104381466246504690400200501E8241FD
S11354504846D9400243EEE627003743002F00D1E7
S1135460A7E0ED43002DCBD040F2FF77B842B3D193
S11354700C00564640F2FF785F4679E640F2FF7C26
S1135480634503D00300CEE60C00564640F2FF7895
S11354906EE600257CE700218CE74346002B00D014
S11354A0D2E023003343002B00D117E10B00524616
S11354B01343002B00D15BE6B218B242B641641824
S11354C07642A419230200D426E1034B16001C40A3
S11354D040F201084CE6C046FFFF7FFF2000424631
S11354E03043002A59D1002800D096E00C001C4318
S11354F0002C00D1CDE00C001E005F4638E640F2DF
S1135500FF780024002678E618000A002038C240FC
S11355101000202B00D1BAE040F2400C6246D31AAE
S1135520994052460A43511E8A410021024382E6B1
S11355304246002A47D122003243002A00D1BDE06E
S1135540DB439B460BB340F2FF7C60459CD05B463B
S1135550382B00DDBDE01F2B00DDC2E040F2200847
S11355604246D21A9046220043469A405B469446ED
S11355703200DA40914662464B461A4343469E4007
S1135580731E9E415B46DC40164356445645924189
S113559064185242A418804654E6F8B90800184327
S11355A0002800D18EE00C001E005F4640F2FF7818
S11355B0DEE50C001E0080465F46D9E52643741ED6
S11355C0A64100241CE740F2FF7C604500D15BE764
S11355D080225B4212049B461443B8E70800184338
S11355E040F2FF78002800D1C2E5F00866070643C0
S11355F08020E4080003044208D0CD08054205D108
S1135600DA08490711430E002C005F46730FE400CB
S11356101C43F60040F2FF78AAE50800184300286E
S113562000D1A5E5F21A9642AD41601A6D42401BC5
S11356309446020200D4D2E59E1BB24592410C1B53
S11356405242A41A5F4693E523003343002B00D152
S11356501AE70B005246134340F2FF78002B00D1A7
S113566086E5F008660706438020E4080003044248
S1135670CCD0CB080342C9D1D208490711430E004C
S11356801C00C3E7002640F2FF7200248EE50021CF
S113569047E700250026B0E52F002200203FFA400E
S11356A01700202D36D040F2400C6246551BAC400A
S11356B02643741EA64100243E43A1E60C00564630
S11356C0804655E580240025240340F2FF78002617
S11356D093E52643741EA641002456E70C00564663
S11356E046E520235B429C46DC4463462200DA40C4
S11356F05B469446202B11D040F240085A4643465C
S11357009B1A9C402643741EA641634633431E00E5
S113571000243AE70024CBE7160067E50024F1E70C
S1135720F0B557464546DE464E46E0B54C001E00F1
S11357300F03CB0F640D85B08346924605003F0BE3
S11357409846002C53D040F2FF739C4235D08023FE
S1135750420F1B04FF0013433B439946714B002740
S11357609C460023C5006444029333031B0B9B46F1
S113577073005B0DF60F50460196002B63D040F288
S1135780FF72934255D05A46D1008022400F120432
S113579002430A4363499346524658180021D200F3
S11357A04346201A73409C4600900F430F2F00D9A4
S11357B0BEE05D48BF00C059874603003B4399469D
S11357C0002B75D102230025082740F2FF740293B1
S11357D0CBE74346CB462A0002990193022900D025
S11357E0BDE1019B40F2FF76002400256DE003003B
S11357F03B439946002B55D0002F00D1C8E1380017
S113580001F0D8FA03000B3B1C2B00DDB9E11D228B
S1135810D31A5A460100DA4008398F4013005D4616
S11358203B4399468D400023404C0027241A0293A1
S11358309BE752465B461A437ABB40F2000B40F2A8
S1135840FF700221ACE75A4602430AB35B46002BC1
S113585000D1A8E1584601F0ADFA03000B3B1C2B24
S113586000DD99E102005946083A914040F21D0CCE
S11358708B466146CB1A5146D9400B0059460B431F
S11358809B46534693401A00284B0021181A87E779
S113589040F2000B0020012182E7524640F2FF70E3
S11358A003217DE7012300250427002402935CE7FC
S11358B00323B94640F2FF740C27029355E7802472
S11358C000230025240340F2FF76002128004FF630
S11358D0FF752403220B0C0D24051443C8F20F0595
S11358E032052C4022435200DB0752081A431100B0
S11358F005B03CBC90469946A246AB46F0BD012299
S113590052420123991B382900DCBCE16246134052
S1135910002600240025D8E740F2FF760024002565
S1135920D3E7C04601FCFFFF4C7200000DFCFFFFF3
S1135930D94500D93EE100D139E1009B2F00013B5C
S1135940009300254B465946100E09020143080CEA
S113595016024FF6FF72B3FBF0F80A4014000192EE
S113596042466243444644431B1B1B0499464C462F
S11359703B0C23439A420FD90124644244445B18EC
S1135980A146994200D93DE19A4200D83AE1022465
S11359906442A1465B18C8449B1AB3FBF0FB5A4609
S11359A0019C4FF6FF7A62435C4644431B1B5446FA
S11359B01B043C4023439A420DD95C465B18671E86
S11359C0994200D920E19A4200D81DE102246442A0
S11359D0A1465B18CB449A1A43465C464FF6FF78BF
S11359E01B041C43330C9A464346270C2340A3460E
S11359F04446344003945C430294039C7C43A14694
S1135A00544663436743029C4B44240CA0464344DE
S1135A10994503D980246402A04647441C0CA1463E
S1135A20B9444FF6FF77029C1B042740DB194A4513
S1135A3000D2CBE000D1C5E04C46171BEB1A9D42C7
S1135A40AD416D427F1BB94200D107E1B7FBF0F2D3
S1135A500400019D544355433F1B3F041C0C274342
S1135A60BD420AD9541E7F18A046B94200D9FFE0AE
S1135A70BD4200D8FCE0023A7F187F1BB7FBF0F56B
S1135A8068433F1A4FF6FF70019C3F046C43034088
S1135A90A0463B439C4209D95B18681E994200D931
S1135AA0E8E09C4200D8E5E0023D5B184046120461
S1135AB02A43039C150C1B1A4FF6FF7027006C43F6
S1135AC0A046544610404743654360433C0CA146FE
S1135AD040444844804503D980246402A046454498
S1135AE0040CA04645444FF6FF78444600043C406D
S1135AF00019AB4200D299E000D194E001231A438B
S1135B0040F2FF330099CE18002E00DCF9E653076B
S1135B1000D097E05B46DB0107D55946934B19400B
S1135B2040F200438B460099CE1840F2FE739E4229
S1135B306CDD0123624640F2FF7613400024002509
S1135B40C3E680244B462403234215D05B462342FC
S1135B5011D11C432403240B33001500B3E603299D
S1135B6000D1F9E0019B012900D08AE00B40002616
S1135B7000240025A9E64B461C432403240B43467A
S1135B80A1E603005A46283B9A40002591464AE67E
S1135B9001F010F9203035E603005246283B9A40C4
S1135BA09346002270E601F005F9203055E695424F
S1135BB000D2C2E649464B46CF0769085B080F434B
S1135BC0ED07C0E600279D4200D337E7AD19B54283
S1135BD0BF4101247F4264427F185C44BA18A04646
S1135BE0914207D2914572D800D1AAE04C46C346EF
S1135BF0171B23E79142F9D1AE42F3D94A46A34693
S1135C008F1A1BE7C846C7E6BB46E4E65B46D208E4
S1135C105D07154340F2FF725C02164001236246A1
S1135C20240B134051E6002800D169E7CB18571E16
S1135C30994221D93A00AB4200D05FE7B04200D08C
S1135C405CE75DE70F231340042B00D162E71300E8
S1135C501A1D9A429B415B429B445BE740F2FF332F
S1135C60009AD618002E00DC49E601235B42EFE7D8
S1135C70424602E7050019E79D4235D866D03A004E
S1135C803CE79C463CE71F2937DC20231400584698
S1135C905B1A9A409840CC40531E9A4120435C467C
S1135CA01043CC40430709D00F230340042B05D0F5
S1135CB00200101D90429B415B42E418230235D53B
S1135CC0012362460126134000240025FDE5AD1999
S1135CD0B542BF4102247F4264427F18BF18A046E8
S1135CE04A46C344BF1AA9E6971E7200B242B6419F
